{
  "_format": "hh-sol-artifact-1",
  "contractName": "BrainnestNFT",
  "sourceName": "contracts/BrainnestNFT.sol",
  "abi": [
    {
      "inputs": [
        {
          "internalType": "uint256",
          "name": "_maxSupply",
          "type": "uint256"
        }
      ],
      "stateMutability": "nonpayable",
      "type": "constructor"
    },
    {
      "anonymous": false,
      "inputs": [
        {
          "indexed": true,
          "internalType": "address",
          "name": "owner",
          "type": "address"
        },
        {
          "indexed": true,
          "internalType": "address",
          "name": "approved",
          "type": "address"
        },
        {
          "indexed": true,
          "internalType": "uint256",
          "name": "tokenId",
          "type": "uint256"
        }
      ],
      "name": "Approval",
      "type": "event"
    },
    {
      "anonymous": false,
      "inputs": [
        {
          "indexed": true,
          "internalType": "address",
          "name": "owner",
          "type": "address"
        },
        {
          "indexed": true,
          "internalType": "address",
          "name": "operator",
          "type": "address"
        },
        {
          "indexed": false,
          "internalType": "bool",
          "name": "approved",
          "type": "bool"
        }
      ],
      "name": "ApprovalForAll",
      "type": "event"
    },
    {
      "anonymous": false,
      "inputs": [
        {
          "indexed": true,
          "internalType": "address",
          "name": "previousOwner",
          "type": "address"
        },
        {
          "indexed": true,
          "internalType": "address",
          "name": "newOwner",
          "type": "address"
        }
      ],
      "name": "OwnershipTransferred",
      "type": "event"
    },
    {
      "anonymous": false,
      "inputs": [
        {
          "indexed": false,
          "internalType": "address",
          "name": "account",
          "type": "address"
        }
      ],
      "name": "Paused",
      "type": "event"
    },
    {
      "anonymous": false,
      "inputs": [
        {
          "indexed": true,
          "internalType": "address",
          "name": "from",
          "type": "address"
        },
        {
          "indexed": true,
          "internalType": "address",
          "name": "to",
          "type": "address"
        },
        {
          "indexed": true,
          "internalType": "uint256",
          "name": "tokenId",
          "type": "uint256"
        }
      ],
      "name": "Transfer",
      "type": "event"
    },
    {
      "anonymous": false,
      "inputs": [
        {
          "indexed": false,
          "internalType": "address",
          "name": "account",
          "type": "address"
        }
      ],
      "name": "Unpaused",
      "type": "event"
    },
    {
      "inputs": [
        {
          "internalType": "address",
          "name": "to",
          "type": "address"
        },
        {
          "internalType": "uint256",
          "name": "tokenId",
          "type": "uint256"
        }
      ],
      "name": "approve",
      "outputs": [],
      "stateMutability": "nonpayable",
      "type": "function"
    },
    {
      "inputs": [
        {
          "internalType": "address",
          "name": "owner",
          "type": "address"
        }
      ],
      "name": "balanceOf",
      "outputs": [
        {
          "internalType": "uint256",
          "name": "",
          "type": "uint256"
        }
      ],
      "stateMutability": "view",
      "type": "function"
    },
    {
      "inputs": [
        {
          "internalType": "uint256",
          "name": "_public0private1",
          "type": "uint256"
        }
      ],
      "name": "editMints",
      "outputs": [],
      "stateMutability": "nonpayable",
      "type": "function"
    },
    {
      "inputs": [
        {
          "internalType": "address",
          "name": "_user",
          "type": "address"
        }
      ],
      "name": "getAllowance",
      "outputs": [
        {
          "internalType": "bool",
          "name": "",
          "type": "bool"
        }
      ],
      "stateMutability": "view",
      "type": "function"
    },
    {
      "inputs": [
        {
          "internalType": "uint256",
          "name": "tokenId",
          "type": "uint256"
        }
      ],
      "name": "getApproved",
      "outputs": [
        {
          "internalType": "address",
          "name": "",
          "type": "address"
        }
      ],
      "stateMutability": "view",
      "type": "function"
    },
    {
      "inputs": [
        {
          "internalType": "address",
          "name": "",
          "type": "address"
        }
      ],
      "name": "isAllowed",
      "outputs": [
        {
          "internalType": "bool",
          "name": "",
          "type": "bool"
        }
      ],
      "stateMutability": "view",
      "type": "function"
    },
    {
      "inputs": [
        {
          "internalType": "address",
          "name": "owner",
          "type": "address"
        },
        {
          "internalType": "address",
          "name": "operator",
          "type": "address"
        }
      ],
      "name": "isApprovedForAll",
      "outputs": [
        {
          "internalType": "bool",
          "name": "",
          "type": "bool"
        }
      ],
      "stateMutability": "view",
      "type": "function"
    },
    {
      "inputs": [],
      "name": "maxSupply",
      "outputs": [
        {
          "internalType": "uint256",
          "name": "",
          "type": "uint256"
        }
      ],
      "stateMutability": "view",
      "type": "function"
    },
    {
      "inputs": [],
      "name": "name",
      "outputs": [
        {
          "internalType": "string",
          "name": "",
          "type": "string"
        }
      ],
      "stateMutability": "view",
      "type": "function"
    },
    {
      "inputs": [],
      "name": "owner",
      "outputs": [
        {
          "internalType": "address",
          "name": "",
          "type": "address"
        }
      ],
      "stateMutability": "view",
      "type": "function"
    },
    {
      "inputs": [
        {
          "internalType": "uint256",
          "name": "tokenId",
          "type": "uint256"
        }
      ],
      "name": "ownerOf",
      "outputs": [
        {
          "internalType": "address",
          "name": "",
          "type": "address"
        }
      ],
      "stateMutability": "view",
      "type": "function"
    },
    {
      "inputs": [],
      "name": "paused",
      "outputs": [
        {
          "internalType": "bool",
          "name": "",
          "type": "bool"
        }
      ],
      "stateMutability": "view",
      "type": "function"
    },
    {
      "inputs": [],
      "name": "privateMintAllow",
      "outputs": [
        {
          "internalType": "bool",
          "name": "",
          "type": "bool"
        }
      ],
      "stateMutability": "view",
      "type": "function"
    },
    {
      "inputs": [],
      "name": "privatetMint",
      "outputs": [],
      "stateMutability": "payable",
      "type": "function"
    },
    {
      "inputs": [],
      "name": "publicMint",
      "outputs": [],
      "stateMutability": "payable",
      "type": "function"
    },
    {
      "inputs": [],
      "name": "publicMintAllow",
      "outputs": [
        {
          "internalType": "bool",
          "name": "",
          "type": "bool"
        }
      ],
      "stateMutability": "view",
      "type": "function"
    },
    {
      "inputs": [],
      "name": "renounceOwnership",
      "outputs": [],
      "stateMutability": "nonpayable",
      "type": "function"
    },
    {
      "inputs": [
        {
          "internalType": "address",
          "name": "from",
          "type": "address"
        },
        {
          "internalType": "address",
          "name": "to",
          "type": "address"
        },
        {
          "internalType": "uint256",
          "name": "tokenId",
          "type": "uint256"
        }
      ],
      "name": "safeTransferFrom",
      "outputs": [],
      "stateMutability": "nonpayable",
      "type": "function"
    },
    {
      "inputs": [
        {
          "internalType": "address",
          "name": "from",
          "type": "address"
        },
        {
          "internalType": "address",
          "name": "to",
          "type": "address"
        },
        {
          "internalType": "uint256",
          "name": "tokenId",
          "type": "uint256"
        },
        {
          "internalType": "bytes",
          "name": "data",
          "type": "bytes"
        }
      ],
      "name": "safeTransferFrom",
      "outputs": [],
      "stateMutability": "nonpayable",
      "type": "function"
    },
    {
      "inputs": [
        {
          "internalType": "address",
          "name": "_user",
          "type": "address"
        }
      ],
      "name": "setAllowance",
      "outputs": [],
      "stateMutability": "nonpayable",
      "type": "function"
    },
    {
      "inputs": [
        {
          "internalType": "address",
          "name": "operator",
          "type": "address"
        },
        {
          "internalType": "bool",
          "name": "approved",
          "type": "bool"
        }
      ],
      "name": "setApprovalForAll",
      "outputs": [],
      "stateMutability": "nonpayable",
      "type": "function"
    },
    {
      "inputs": [
        {
          "internalType": "bytes4",
          "name": "interfaceId",
          "type": "bytes4"
        }
      ],
      "name": "supportsInterface",
      "outputs": [
        {
          "internalType": "bool",
          "name": "",
          "type": "bool"
        }
      ],
      "stateMutability": "view",
      "type": "function"
    },
    {
      "inputs": [],
      "name": "symbol",
      "outputs": [
        {
          "internalType": "string",
          "name": "",
          "type": "string"
        }
      ],
      "stateMutability": "view",
      "type": "function"
    },
    {
      "inputs": [
        {
          "internalType": "uint256",
          "name": "index",
          "type": "uint256"
        }
      ],
      "name": "tokenByIndex",
      "outputs": [
        {
          "internalType": "uint256",
          "name": "",
          "type": "uint256"
        }
      ],
      "stateMutability": "view",
      "type": "function"
    },
    {
      "inputs": [
        {
          "internalType": "address",
          "name": "owner",
          "type": "address"
        },
        {
          "internalType": "uint256",
          "name": "index",
          "type": "uint256"
        }
      ],
      "name": "tokenOfOwnerByIndex",
      "outputs": [
        {
          "internalType": "uint256",
          "name": "",
          "type": "uint256"
        }
      ],
      "stateMutability": "view",
      "type": "function"
    },
    {
      "inputs": [
        {
          "internalType": "uint256",
          "name": "tokenId",
          "type": "uint256"
        }
      ],
      "name": "tokenURI",
      "outputs": [
        {
          "internalType": "string",
          "name": "",
          "type": "string"
        }
      ],
      "stateMutability": "view",
      "type": "function"
    },
    {
      "inputs": [],
      "name": "totalSupply",
      "outputs": [
        {
          "internalType": "uint256",
          "name": "",
          "type": "uint256"
        }
      ],
      "stateMutability": "view",
      "type": "function"
    },
    {
      "inputs": [
        {
          "internalType": "address",
          "name": "from",
          "type": "address"
        },
        {
          "internalType": "address",
          "name": "to",
          "type": "address"
        },
        {
          "internalType": "uint256",
          "name": "tokenId",
          "type": "uint256"
        }
      ],
      "name": "transferFrom",
      "outputs": [],
      "stateMutability": "nonpayable",
      "type": "function"
    },
    {
      "inputs": [
        {
          "internalType": "address",
          "name": "newOwner",
          "type": "address"
        }
      ],
      "name": "transferOwnership",
      "outputs": [],
      "stateMutability": "nonpayable",
      "type": "function"
    },
    {
      "inputs": [
        {
          "internalType": "address",
          "name": "_addr",
          "type": "address"
        }
      ],
      "name": "withdraw",
      "outputs": [],
      "stateMutability": "nonpayable",
      "type": "function"
    }
  ],
  "bytecode": "0x60806040526001600d60006101000a81548160ff0219169083151502179055506000600d60016101000a81548160ff0219169083151502179055503480156200004757600080fd5b50604051620042df380380620042df83398181016040528101906200006d919062000314565b6040518060400160405280600c81526020017f427261696e6e65737437323100000000000000000000000000000000000000008152506040518060400160405280600481526020017f424e5354000000000000000000000000000000000000000000000000000000008152508160009080519060200190620000f192919062000224565b5080600190805190602001906200010a92919062000224565b5050506000600b60006101000a81548160ff021916908315150217905550620001486200013c6200015660201b60201c565b6200015e60201b60201c565b80600c8190555050620003ab565b600033905090565b6000600b60019054906101000a900473ffffffffffffffffffffffffffffffffffffffff16905081600b60016101000a81548173ffffffffffffffffffffffffffffffffffffffff021916908373ffffffffffffffffffffffffffffffffffffffff1602179055508173ffffffffffffffffffffffffffffffffffffffff168173ffffffffffffffffffffffffffffffffffffffff167f8be0079c531659141344cd1fd0a4f28419497f9722a3daafe3b4186f6b6457e060405160405180910390a35050565b828054620002329062000375565b90600052602060002090601f016020900481019282620002565760008555620002a2565b82601f106200027157805160ff1916838001178555620002a2565b82800160010185558215620002a2579182015b82811115620002a157825182559160200191906001019062000284565b5b509050620002b19190620002b5565b5090565b5b80821115620002d0576000816000905550600101620002b6565b5090565b600080fd5b6000819050919050565b620002ee81620002d9565b8114620002fa57600080fd5b50565b6000815190506200030e81620002e3565b92915050565b6000602082840312156200032d576200032c620002d4565b5b60006200033d84828501620002fd565b91505092915050565b7f4e487b7100000000000000000000000000000000000000000000000000000000600052602260045260246000fd5b600060028204905060018216806200038e57607f821691505b60208210811415620003a557620003a462000346565b5b50919050565b613f2480620003bb6000396000f3fe6080604052600436106101cd5760003560e01c806370a08231116100f7578063b88d4fde11610095578063e985e9c511610064578063e985e9c51461065c578063eb5a662e14610699578063ee20e784146106d6578063f2fde38b146106ff576101cd565b8063b88d4fde1461058e578063babcc539146105b7578063c87b56dd146105f4578063d5abeb0114610631576101cd565b80638da5cb5b116100d15780638da5cb5b146104e457806395d89b411461050f57806396cbaef01461053a578063a22cb46514610565576101cd565b806370a0823114610486578063715018a6146104c35780637753b6c1146104da576101cd565b806326092b831161016f57806350b7d91c1161013e57806350b7d91c146103ca57806351cff8d9146103f55780635c975abb1461041e5780636352211e14610449576101cd565b806326092b831461031d5780632f745c591461032757806342842e0e146103645780634f6ccce71461038d576101cd565b8063095ea7b3116101ab578063095ea7b314610277578063150db49d146102a057806318160ddd146102c957806323b872dd146102f4576101cd565b806301ffc9a7146101d257806306fdde031461020f578063081812fc1461023a575b600080fd5b3480156101de57600080fd5b506101f960048036038101906101f49190612a3c565b610728565b6040516102069190612a84565b60405180910390f35b34801561021b57600080fd5b5061022461073a565b6040516102319190612b38565b60405180910390f35b34801561024657600080fd5b50610261600480360381019061025c9190612b90565b6107cc565b60405161026e9190612bfe565b60405180910390f35b34801561028357600080fd5b5061029e60048036038101906102999190612c45565b610812565b005b3480156102ac57600080fd5b506102c760048036038101906102c29190612b90565b61092a565b005b3480156102d557600080fd5b506102de6109f0565b6040516102eb9190612c94565b60405180910390f35b34801561030057600080fd5b5061031b60048036038101906103169190612caf565b6109fd565b005b610325610a5d565b005b34801561033357600080fd5b5061034e60048036038101906103499190612c45565b610aff565b60405161035b9190612c94565b60405180910390f35b34801561037057600080fd5b5061038b60048036038101906103869190612caf565b610ba4565b005b34801561039957600080fd5b506103b460048036038101906103af9190612b90565b610bc4565b6040516103c19190612c94565b60405180910390f35b3480156103d657600080fd5b506103df610c35565b6040516103ec9190612a84565b60405180910390f35b34801561040157600080fd5b5061041c60048036038101906104179190612d02565b610c48565b005b34801561042a57600080fd5b50610433610ca0565b6040516104409190612a84565b60405180910390f35b34801561045557600080fd5b50610470600480360381019061046b9190612b90565b610cb7565b60405161047d9190612bfe565b60405180910390f35b34801561049257600080fd5b506104ad60048036038101906104a89190612d02565b610d3e565b6040516104ba9190612c94565b60405180910390f35b3480156104cf57600080fd5b506104d8610df6565b005b6104e2610e0a565b005b3480156104f057600080fd5b506104f9610ef4565b6040516105069190612bfe565b60405180910390f35b34801561051b57600080fd5b50610524610f1e565b6040516105319190612b38565b60405180910390f35b34801561054657600080fd5b5061054f610fb0565b60405161055c9190612a84565b60405180910390f35b34801561057157600080fd5b5061058c60048036038101906105879190612d5b565b610fc3565b005b34801561059a57600080fd5b506105b560048036038101906105b09190612ed0565b610fd9565b005b3480156105c357600080fd5b506105de60048036038101906105d99190612d02565b61103b565b6040516105eb9190612a84565b60405180910390f35b34801561060057600080fd5b5061061b60048036038101906106169190612b90565b61105b565b6040516106289190612b38565b60405180910390f35b34801561063d57600080fd5b5061064661112e565b6040516106539190612c94565b60405180910390f35b34801561066857600080fd5b50610683600480360381019061067e9190612f53565b611134565b6040516106909190612a84565b60405180910390f35b3480156106a557600080fd5b506106c060048036038101906106bb9190612d02565b6111c8565b6040516106cd9190612a84565b60405180910390f35b3480156106e257600080fd5b506106fd60048036038101906106f89190612d02565b61121e565b005b34801561070b57600080fd5b5061072660048036038101906107219190612d02565b6112cd565b005b600061073382611351565b9050919050565b60606000805461074990612fc2565b80601f016020809104026020016040519081016040528092919081815260200182805461077590612fc2565b80156107c25780601f10610797576101008083540402835291602001916107c2565b820191906000526020600020905b8154815290600101906020018083116107a557829003601f168201915b5050505050905090565b60006107d7826113cb565b6004600083815260200190815260200160002060009054906101000a900473ffffffffffffffffffffffffffffffffffffffff169050919050565b600061081d82610cb7565b90508073ffffffffffffffffffffffffffffffffffffffff168373ffffffffffffffffffffffffffffffffffffffff16141561088e576040517f08c379a000000000000000000000000000000000000000000000000000000000815260040161088590613066565b60405180910390fd5b8073ffffffffffffffffffffffffffffffffffffffff166108ad611416565b73ffffffffffffffffffffffffffffffffffffffff1614806108dc57506108db816108d6611416565b611134565b5b61091b576040517f08c379a0000000000000000000000000000000000000000000000000000000008152600401610912906130f8565b60405180910390fd5b610925838361141e565b505050565b6109326114d7565b60008114806109415750600181145b610980576040517f08c379a000000000000000000000000000000000000000000000000000000000815260040161097790613164565b60405180910390fd5b60008114156109b857600d60009054906101000a900460ff1615600d60006101000a81548160ff0219169083151502179055506109ed565b60018114156109ec57600d60019054906101000a900460ff1615600d60016101000a81548160ff0219169083151502179055505b5b50565b6000600980549050905090565b610a0e610a08611416565b82611555565b610a4d576040517f08c379a0000000000000000000000000000000000000000000000000000000008152600401610a44906131f6565b60405180910390fd5b610a588383836115ea565b505050565b600d60009054906101000a900460ff16610aac576040517f08c379a0000000000000000000000000000000000000000000000000000000008152600401610aa390613262565b60405180910390fd5b64174876e800341015610af4576040517f08c379a0000000000000000000000000000000000000000000000000000000008152600401610aeb906132ce565b60405180910390fd5b610afc6118e4565b50565b6000610b0a83610d3e565b8210610b4b576040517f08c379a0000000000000000000000000000000000000000000000000000000008152600401610b4290613360565b60405180910390fd5b600760008473ffffffffffffffffffffffffffffffffffffffff1673ffffffffffffffffffffffffffffffffffffffff168152602001908152602001600020600083815260200190815260200160002054905092915050565b610bbf83838360405180602001604052806000815250610fd9565b505050565b6000610bce6109f0565b8210610c0f576040517f08c379a0000000000000000000000000000000000000000000000000000000008152600401610c06906133f2565b60405180910390fd5b60098281548110610c2357610c22613412565b5b90600052602060002001549050919050565b600d60009054906101000a900460ff1681565b610c506114d7565b60004790508173ffffffffffffffffffffffffffffffffffffffff166108fc829081150290604051600060405180830381858888f19350505050158015610c9b573d6000803e3d6000fd5b505050565b6000600b60009054906101000a900460ff16905090565b600080610cc3836119f5565b9050600073ffffffffffffffffffffffffffffffffffffffff168173ffffffffffffffffffffffffffffffffffffffff161415610d35576040517f08c379a0000000000000000000000000000000000000000000000000000000008152600401610d2c9061348d565b60405180910390fd5b80915050919050565b60008073ffffffffffffffffffffffffffffffffffffffff168273ffffffffffffffffffffffffffffffffffffffff161415610daf576040517f08c379a0000000000000000000000000000000000000000000000000000000008152600401610da69061351f565b60405180910390fd5b600360008373ffffffffffffffffffffffffffffffffffffffff1673ffffffffffffffffffffffffffffffffffffffff168152602001908152602001600020549050919050565b610dfe6114d7565b610e086000611a32565b565b610e13336111c8565b610e52576040517f08c379a0000000000000000000000000000000000000000000000000000000008152600401610e499061358b565b60405180910390fd5b600d60019054906101000a900460ff16610ea1576040517f08c379a0000000000000000000000000000000000000000000000000000000008152600401610e98906135f7565b60405180910390fd5b64e8d4a51000341015610ee9576040517f08c379a0000000000000000000000000000000000000000000000000000000008152600401610ee0906132ce565b60405180910390fd5b610ef16118e4565b50565b6000600b60019054906101000a900473ffffffffffffffffffffffffffffffffffffffff16905090565b606060018054610f2d90612fc2565b80601f0160208091040260200160405190810160405280929190818152602001828054610f5990612fc2565b8015610fa65780601f10610f7b57610100808354040283529160200191610fa6565b820191906000526020600020905b815481529060010190602001808311610f8957829003601f168201915b5050505050905090565b600d60019054906101000a900460ff1681565b610fd5610fce611416565b8383611af8565b5050565b610fea610fe4611416565b83611555565b611029576040517f08c379a0000000000000000000000000000000000000000000000000000000008152600401611020906131f6565b60405180910390fd5b61103584848484611c65565b50505050565b600e6020528060005260406000206000915054906101000a900460ff1681565b6060611066826113cb565b6000600f6000848152602001908152602001600020805461108690612fc2565b80601f01602080910402602001604051908101604052809291908181526020018280546110b290612fc2565b80156110ff5780601f106110d4576101008083540402835291602001916110ff565b820191906000526020600020905b8154815290600101906020018083116110e257829003601f168201915b50505050509050806040516020016111179190613653565b604051602081830303815290604052915050919050565b600c5481565b6000600560008473ffffffffffffffffffffffffffffffffffffffff1673ffffffffffffffffffffffffffffffffffffffff16815260200190815260200160002060008373ffffffffffffffffffffffffffffffffffffffff1673ffffffffffffffffffffffffffffffffffffffff16815260200190815260200160002060009054906101000a900460ff16905092915050565b6000600e60008373ffffffffffffffffffffffffffffffffffffffff1673ffffffffffffffffffffffffffffffffffffffff16815260200190815260200160002060009054906101000a900460ff169050919050565b6112266114d7565b600e60008273ffffffffffffffffffffffffffffffffffffffff1673ffffffffffffffffffffffffffffffffffffffff16815260200190815260200160002060009054906101000a900460ff1615600e60008373ffffffffffffffffffffffffffffffffffffffff1673ffffffffffffffffffffffffffffffffffffffff16815260200190815260200160002060006101000a81548160ff02191690831515021790555050565b6112d56114d7565b600073ffffffffffffffffffffffffffffffffffffffff168173ffffffffffffffffffffffffffffffffffffffff161415611345576040517f08c379a000000000000000000000000000000000000000000000000000000000815260040161133c906136dc565b60405180910390fd5b61134e81611a32565b50565b60007f780e9d63000000000000000000000000000000000000000000000000000000007bffffffffffffffffffffffffffffffffffffffffffffffffffffffff1916827bffffffffffffffffffffffffffffffffffffffffffffffffffffffff191614806113c457506113c382611cc1565b5b9050919050565b6113d481611da3565b611413576040517f08c379a000000000000000000000000000000000000000000000000000000000815260040161140a9061348d565b60405180910390fd5b50565b600033905090565b816004600083815260200190815260200160002060006101000a81548173ffffffffffffffffffffffffffffffffffffffff021916908373ffffffffffffffffffffffffffffffffffffffff160217905550808273ffffffffffffffffffffffffffffffffffffffff1661149183610cb7565b73ffffffffffffffffffffffffffffffffffffffff167f8c5be1e5ebec7d5bd14f71427d1e84f3dd0314c0f7b2291e5b200ac8c7c3b92560405160405180910390a45050565b6114df611416565b73ffffffffffffffffffffffffffffffffffffffff166114fd610ef4565b73ffffffffffffffffffffffffffffffffffffffff1614611553576040517f08c379a000000000000000000000000000000000000000000000000000000000815260040161154a90613748565b60405180910390fd5b565b60008061156183610cb7565b90508073ffffffffffffffffffffffffffffffffffffffff168473ffffffffffffffffffffffffffffffffffffffff1614806115a357506115a28185611134565b5b806115e157508373ffffffffffffffffffffffffffffffffffffffff166115c9846107cc565b73ffffffffffffffffffffffffffffffffffffffff16145b91505092915050565b8273ffffffffffffffffffffffffffffffffffffffff1661160a82610cb7565b73ffffffffffffffffffffffffffffffffffffffff1614611660576040517f08c379a0000000000000000000000000000000000000000000000000000000008152600401611657906137da565b60405180910390fd5b600073ffffffffffffffffffffffffffffffffffffffff168273ffffffffffffffffffffffffffffffffffffffff1614156116d0576040517f08c379a00000000000000000000000000000000000000000000000000000000081526004016116c79061386c565b60405180910390fd5b6116dd8383836001611de4565b8273ffffffffffffffffffffffffffffffffffffffff166116fd82610cb7565b73ffffffffffffffffffffffffffffffffffffffff1614611753576040517f08c379a000000000000000000000000000000000000000000000000000000000815260040161174a906137da565b60405180910390fd5b6004600082815260200190815260200160002060006101000a81549073ffffffffffffffffffffffffffffffffffffffff02191690556001600360008573ffffffffffffffffffffffffffffffffffffffff1673ffffffffffffffffffffffffffffffffffffffff168152602001908152602001600020600082825403925050819055506001600360008473ffffffffffffffffffffffffffffffffffffffff1673ffffffffffffffffffffffffffffffffffffffff16815260200190815260200160002060008282540192505081905550816002600083815260200190815260200160002060006101000a81548173ffffffffffffffffffffffffffffffffffffffff021916908373ffffffffffffffffffffffffffffffffffffffff160217905550808273ffffffffffffffffffffffffffffffffffffffff168473ffffffffffffffffffffffffffffffffffffffff167fddf252ad1be2c89b69c2b068fc378daa952ba7f163c4a11628f55a4df523b3ef60405160405180910390a46118df8383836001611dfe565b505050565b6000600c546118f16109f0565b10611931576040517f08c379a0000000000000000000000000000000000000000000000000000000008152600401611928906138d8565b60405180910390fd5b600061193c33610d3e565b1461197c576040517f08c379a000000000000000000000000000000000000000000000000000000000815260040161197390613944565b60405180910390fd5b6119866010611e04565b60006119926010611e1a565b905061199e3382611e28565b6000604051806080016040528060598152602001613e966059913990506119c58282611e46565b80600f600084815260200190815260200160002090805190602001906119ec92919061292d565b50819250505090565b60006002600083815260200190815260200160002060009054906101000a900473ffffffffffffffffffffffffffffffffffffffff169050919050565b6000600b60019054906101000a900473ffffffffffffffffffffffffffffffffffffffff16905081600b60016101000a81548173ffffffffffffffffffffffffffffffffffffffff021916908373ffffffffffffffffffffffffffffffffffffffff1602179055508173ffffffffffffffffffffffffffffffffffffffff168173ffffffffffffffffffffffffffffffffffffffff167f8be0079c531659141344cd1fd0a4f28419497f9722a3daafe3b4186f6b6457e060405160405180910390a35050565b8173ffffffffffffffffffffffffffffffffffffffff168373ffffffffffffffffffffffffffffffffffffffff161415611b67576040517f08c379a0000000000000000000000000000000000000000000000000000000008152600401611b5e906139b0565b60405180910390fd5b80600560008573ffffffffffffffffffffffffffffffffffffffff1673ffffffffffffffffffffffffffffffffffffffff16815260200190815260200160002060008473ffffffffffffffffffffffffffffffffffffffff1673ffffffffffffffffffffffffffffffffffffffff16815260200190815260200160002060006101000a81548160ff0219169083151502179055508173ffffffffffffffffffffffffffffffffffffffff168373ffffffffffffffffffffffffffffffffffffffff167f17307eab39ab6107e8899845ad3d59bd9653f200f220920489ca2b5937696c3183604051611c589190612a84565b60405180910390a3505050565b611c708484846115ea565b611c7c84848484611eba565b611cbb576040517f08c379a0000000000000000000000000000000000000000000000000000000008152600401611cb290613a42565b60405180910390fd5b50505050565b60007f80ac58cd000000000000000000000000000000000000000000000000000000007bffffffffffffffffffffffffffffffffffffffffffffffffffffffff1916827bffffffffffffffffffffffffffffffffffffffffffffffffffffffff19161480611d8c57507f5b5e139f000000000000000000000000000000000000000000000000000000007bffffffffffffffffffffffffffffffffffffffffffffffffffffffff1916827bffffffffffffffffffffffffffffffffffffffffffffffffffffffff1916145b80611d9c5750611d9b82612051565b5b9050919050565b60008073ffffffffffffffffffffffffffffffffffffffff16611dc5836119f5565b73ffffffffffffffffffffffffffffffffffffffff1614159050919050565b611dec6120bb565b611df884848484612105565b50505050565b50505050565b6001816000016000828254019250508190555050565b600081600001549050919050565b611e42828260405180602001604052806000815250612265565b5050565b611e4f82611da3565b611e8e576040517f08c379a0000000000000000000000000000000000000000000000000000000008152600401611e8590613ad4565b60405180910390fd5b80600660008481526020019081526020016000209080519060200190611eb592919061292d565b505050565b6000611edb8473ffffffffffffffffffffffffffffffffffffffff166122c0565b15612044578373ffffffffffffffffffffffffffffffffffffffff1663150b7a02611f04611416565b8786866040518563ffffffff1660e01b8152600401611f269493929190613b49565b602060405180830381600087803b158015611f4057600080fd5b505af1925050508015611f7157506040513d601f19601f82011682018060405250810190611f6e9190613baa565b60015b611ff4573d8060008114611fa1576040519150601f19603f3d011682016040523d82523d6000602084013e611fa6565b606091505b50600081511415611fec576040517f08c379a0000000000000000000000000000000000000000000000000000000008152600401611fe390613a42565b60405180910390fd5b805181602001fd5b63150b7a0260e01b7bffffffffffffffffffffffffffffffffffffffffffffffffffffffff1916817bffffffffffffffffffffffffffffffffffffffffffffffffffffffff191614915050612049565b600190505b949350505050565b60007f01ffc9a7000000000000000000000000000000000000000000000000000000007bffffffffffffffffffffffffffffffffffffffffffffffffffffffff1916827bffffffffffffffffffffffffffffffffffffffffffffffffffffffff1916149050919050565b6120c3610ca0565b15612103576040517f08c379a00000000000000000000000000000000000000000000000000000000081526004016120fa90613c23565b60405180910390fd5b565b612111848484846122e3565b6001811115612155576040517f08c379a000000000000000000000000000000000000000000000000000000000815260040161214c90613cb5565b60405180910390fd5b6000829050600073ffffffffffffffffffffffffffffffffffffffff168573ffffffffffffffffffffffffffffffffffffffff16141561219d5761219881612409565b6121dc565b8373ffffffffffffffffffffffffffffffffffffffff168573ffffffffffffffffffffffffffffffffffffffff16146121db576121da8582612452565b5b5b600073ffffffffffffffffffffffffffffffffffffffff168473ffffffffffffffffffffffffffffffffffffffff16141561221f5761221a816125bf565b61225e565b8473ffffffffffffffffffffffffffffffffffffffff168473ffffffffffffffffffffffffffffffffffffffff161461225d5761225c8482612690565b5b5b5050505050565b61226f838361270f565b61227c6000848484611eba565b6122bb576040517f08c379a00000000000000000000000000000000000000000000000000000000081526004016122b290613a42565b60405180910390fd5b505050565b6000808273ffffffffffffffffffffffffffffffffffffffff163b119050919050565b600181111561240357600073ffffffffffffffffffffffffffffffffffffffff168473ffffffffffffffffffffffffffffffffffffffff16146123775780600360008673ffffffffffffffffffffffffffffffffffffffff1673ffffffffffffffffffffffffffffffffffffffff168152602001908152602001600020600082825461236f9190613d04565b925050819055505b600073ffffffffffffffffffffffffffffffffffffffff168373ffffffffffffffffffffffffffffffffffffffff16146124025780600360008573ffffffffffffffffffffffffffffffffffffffff1673ffffffffffffffffffffffffffffffffffffffff16815260200190815260200160002060008282546123fa9190613d38565b925050819055505b5b50505050565b600980549050600a600083815260200190815260200160002081905550600981908060018154018082558091505060019003906000526020600020016000909190919091505550565b6000600161245f84610d3e565b6124699190613d04565b905060006008600084815260200190815260200160002054905081811461254e576000600760008673ffffffffffffffffffffffffffffffffffffffff1673ffffffffffffffffffffffffffffffffffffffff168152602001908152602001600020600084815260200190815260200160002054905080600760008773ffffffffffffffffffffffffffffffffffffffff1673ffffffffffffffffffffffffffffffffffffffff168152602001908152602001600020600084815260200190815260200160002081905550816008600083815260200190815260200160002081905550505b6008600084815260200190815260200160002060009055600760008573ffffffffffffffffffffffffffffffffffffffff1673ffffffffffffffffffffffffffffffffffffffff16815260200190815260200160002060008381526020019081526020016000206000905550505050565b600060016009805490506125d39190613d04565b90506000600a600084815260200190815260200160002054905060006009838154811061260357612602613412565b5b90600052602060002001549050806009838154811061262557612624613412565b5b906000526020600020018190555081600a600083815260200190815260200160002081905550600a600085815260200190815260200160002060009055600980548061267457612673613d8e565b5b6001900381819060005260206000200160009055905550505050565b600061269b83610d3e565b905081600760008573ffffffffffffffffffffffffffffffffffffffff1673ffffffffffffffffffffffffffffffffffffffff168152602001908152602001600020600083815260200190815260200160002081905550806008600084815260200190815260200160002081905550505050565b600073ffffffffffffffffffffffffffffffffffffffff168273ffffffffffffffffffffffffffffffffffffffff16141561277f576040517f08c379a000000000000000000000000000000000000000000000000000000000815260040161277690613e09565b60405180910390fd5b61278881611da3565b156127c8576040517f08c379a00000000000000000000000000000000000000000000000000000000081526004016127bf90613e75565b60405180910390fd5b6127d6600083836001611de4565b6127df81611da3565b1561281f576040517f08c379a000000000000000000000000000000000000000000000000000000000815260040161281690613e75565b60405180910390fd5b6001600360008473ffffffffffffffffffffffffffffffffffffffff1673ffffffffffffffffffffffffffffffffffffffff16815260200190815260200160002060008282540192505081905550816002600083815260200190815260200160002060006101000a81548173ffffffffffffffffffffffffffffffffffffffff021916908373ffffffffffffffffffffffffffffffffffffffff160217905550808273ffffffffffffffffffffffffffffffffffffffff16600073ffffffffffffffffffffffffffffffffffffffff167fddf252ad1be2c89b69c2b068fc378daa952ba7f163c4a11628f55a4df523b3ef60405160405180910390a4612929600083836001611dfe565b5050565b82805461293990612fc2565b90600052602060002090601f01602090048101928261295b57600085556129a2565b82601f1061297457805160ff19168380011785556129a2565b828001600101855582156129a2579182015b828111156129a1578251825591602001919060010190612986565b5b5090506129af91906129b3565b5090565b5b808211156129cc5760008160009055506001016129b4565b5090565b6000604051905090565b600080fd5b600080fd5b60007fffffffff0000000000000000000000000000000000000000000000000000000082169050919050565b612a19816129e4565b8114612a2457600080fd5b50565b600081359050612a3681612a10565b92915050565b600060208284031215612a5257612a516129da565b5b6000612a6084828501612a27565b91505092915050565b60008115159050919050565b612a7e81612a69565b82525050565b6000602082019050612a996000830184612a75565b92915050565b600081519050919050565b600082825260208201905092915050565b60005b83811015612ad9578082015181840152602081019050612abe565b83811115612ae8576000848401525b50505050565b6000601f19601f8301169050919050565b6000612b0a82612a9f565b612b148185612aaa565b9350612b24818560208601612abb565b612b2d81612aee565b840191505092915050565b60006020820190508181036000830152612b528184612aff565b905092915050565b6000819050919050565b612b6d81612b5a565b8114612b7857600080fd5b50565b600081359050612b8a81612b64565b92915050565b600060208284031215612ba657612ba56129da565b5b6000612bb484828501612b7b565b91505092915050565b600073ffffffffffffffffffffffffffffffffffffffff82169050919050565b6000612be882612bbd565b9050919050565b612bf881612bdd565b82525050565b6000602082019050612c136000830184612bef565b92915050565b612c2281612bdd565b8114612c2d57600080fd5b50565b600081359050612c3f81612c19565b92915050565b60008060408385031215612c5c57612c5b6129da565b5b6000612c6a85828601612c30565b9250506020612c7b85828601612b7b565b9150509250929050565b612c8e81612b5a565b82525050565b6000602082019050612ca96000830184612c85565b92915050565b600080600060608486031215612cc857612cc76129da565b5b6000612cd686828701612c30565b9350506020612ce786828701612c30565b9250506040612cf886828701612b7b565b9150509250925092565b600060208284031215612d1857612d176129da565b5b6000612d2684828501612c30565b91505092915050565b612d3881612a69565b8114612d4357600080fd5b50565b600081359050612d5581612d2f565b92915050565b60008060408385031215612d7257612d716129da565b5b6000612d8085828601612c30565b9250506020612d9185828601612d46565b9150509250929050565b600080fd5b600080fd5b7f4e487b7100000000000000000000000000000000000000000000000000000000600052604160045260246000fd5b612ddd82612aee565b810181811067ffffffffffffffff82111715612dfc57612dfb612da5565b5b80604052505050565b6000612e0f6129d0565b9050612e1b8282612dd4565b919050565b600067ffffffffffffffff821115612e3b57612e3a612da5565b5b612e4482612aee565b9050602081019050919050565b82818337600083830152505050565b6000612e73612e6e84612e20565b612e05565b905082815260208101848484011115612e8f57612e8e612da0565b5b612e9a848285612e51565b509392505050565b600082601f830112612eb757612eb6612d9b565b5b8135612ec7848260208601612e60565b91505092915050565b60008060008060808587031215612eea57612ee96129da565b5b6000612ef887828801612c30565b9450506020612f0987828801612c30565b9350506040612f1a87828801612b7b565b925050606085013567ffffffffffffffff811115612f3b57612f3a6129df565b5b612f4787828801612ea2565b91505092959194509250565b60008060408385031215612f6a57612f696129da565b5b6000612f7885828601612c30565b9250506020612f8985828601612c30565b9150509250929050565b7f4e487b7100000000000000000000000000000000000000000000000000000000600052602260045260246000fd5b60006002820490506001821680612fda57607f821691505b60208210811415612fee57612fed612f93565b5b50919050565b7f4552433732313a20617070726f76616c20746f2063757272656e74206f776e6560008201527f7200000000000000000000000000000000000000000000000000000000000000602082015250565b6000613050602183612aaa565b915061305b82612ff4565b604082019050919050565b6000602082019050818103600083015261307f81613043565b9050919050565b7f4552433732313a20617070726f76652063616c6c6572206973206e6f7420746f60008201527f6b656e206f776e6572206f7220617070726f76656420666f7220616c6c000000602082015250565b60006130e2603d83612aaa565b91506130ed82613086565b604082019050919050565b60006020820190508181036000830152613111816130d5565b9050919050565b7f57726f6e6720636f6d6d616e6400000000000000000000000000000000000000600082015250565b600061314e600d83612aaa565b915061315982613118565b602082019050919050565b6000602082019050818103600083015261317d81613141565b9050919050565b7f4552433732313a2063616c6c6572206973206e6f7420746f6b656e206f776e6560008201527f72206f7220617070726f76656400000000000000000000000000000000000000602082015250565b60006131e0602d83612aaa565b91506131eb82613184565b604082019050919050565b6000602082019050818103600083015261320f816131d3565b9050919050565b7f5075626c6963206d696e7420636c6f7365640000000000000000000000000000600082015250565b600061324c601283612aaa565b915061325782613216565b602082019050919050565b6000602082019050818103600083015261327b8161323f565b9050919050565b7f4e6f7420656e6f7567682066756e647300000000000000000000000000000000600082015250565b60006132b8601083612aaa565b91506132c382613282565b602082019050919050565b600060208201905081810360008301526132e7816132ab565b9050919050565b7f455243373231456e756d657261626c653a206f776e657220696e646578206f7560008201527f74206f6620626f756e6473000000000000000000000000000000000000000000602082015250565b600061334a602b83612aaa565b9150613355826132ee565b604082019050919050565b600060208201905081810360008301526133798161333d565b9050919050565b7f455243373231456e756d657261626c653a20676c6f62616c20696e646578206f60008201527f7574206f6620626f756e64730000000000000000000000000000000000000000602082015250565b60006133dc602c83612aaa565b91506133e782613380565b604082019050919050565b6000602082019050818103600083015261340b816133cf565b9050919050565b7f4e487b7100000000000000000000000000000000000000000000000000000000600052603260045260246000fd5b7f4552433732313a20696e76616c696420746f6b656e2049440000000000000000600082015250565b6000613477601883612aaa565b915061348282613441565b602082019050919050565b600060208201905081810360008301526134a68161346a565b9050919050565b7f4552433732313a2061646472657373207a65726f206973206e6f74206120766160008201527f6c6964206f776e65720000000000000000000000000000000000000000000000602082015250565b6000613509602983612aaa565b9150613514826134ad565b604082019050919050565b60006020820190508181036000830152613538816134fc565b9050919050565b7f596f7520617265206e6f7420616c6c6f77656420746f206d696e740000000000600082015250565b6000613575601b83612aaa565b91506135808261353f565b602082019050919050565b600060208201905081810360008301526135a481613568565b9050919050565b7f50726976617465206d696e7420636c6f73656400000000000000000000000000600082015250565b60006135e1601383612aaa565b91506135ec826135ab565b602082019050919050565b60006020820190508181036000830152613610816135d4565b9050919050565b600081905092915050565b600061362d82612a9f565b6136378185613617565b9350613647818560208601612abb565b80840191505092915050565b600061365f8284613622565b915081905092915050565b7f4f776e61626c653a206e6577206f776e657220697320746865207a65726f206160008201527f6464726573730000000000000000000000000000000000000000000000000000602082015250565b60006136c6602683612aaa565b91506136d18261366a565b604082019050919050565b600060208201905081810360008301526136f5816136b9565b9050919050565b7f4f776e61626c653a2063616c6c6572206973206e6f7420746865206f776e6572600082015250565b6000613732602083612aaa565b915061373d826136fc565b602082019050919050565b6000602082019050818103600083015261376181613725565b9050919050565b7f4552433732313a207472616e736665722066726f6d20696e636f72726563742060008201527f6f776e6572000000000000000000000000000000000000000000000000000000602082015250565b60006137c4602583612aaa565b91506137cf82613768565b604082019050919050565b600060208201905081810360008301526137f3816137b7565b9050919050565b7f4552433732313a207472616e7366657220746f20746865207a65726f2061646460008201527f7265737300000000000000000000000000000000000000000000000000000000602082015250565b6000613856602483612aaa565b9150613861826137fa565b604082019050919050565b6000602082019050818103600083015261388581613849565b9050919050565b7f536f6c64206f7574000000000000000000000000000000000000000000000000600082015250565b60006138c2600883612aaa565b91506138cd8261388c565b602082019050919050565b600060208201905081810360008301526138f1816138b5565b9050919050565b7f596f752063616e206f6e6c7920686176652031204e4654000000000000000000600082015250565b600061392e601783612aaa565b9150613939826138f8565b602082019050919050565b6000602082019050818103600083015261395d81613921565b9050919050565b7f4552433732313a20617070726f766520746f2063616c6c657200000000000000600082015250565b600061399a601983612aaa565b91506139a582613964565b602082019050919050565b600060208201905081810360008301526139c98161398d565b9050919050565b7f4552433732313a207472616e7366657220746f206e6f6e20455243373231526560008201527f63656976657220696d706c656d656e7465720000000000000000000000000000602082015250565b6000613a2c603283612aaa565b9150613a37826139d0565b604082019050919050565b60006020820190508181036000830152613a5b81613a1f565b9050919050565b7f45524337323155524953746f726167653a2055524920736574206f66206e6f6e60008201527f6578697374656e7420746f6b656e000000000000000000000000000000000000602082015250565b6000613abe602e83612aaa565b9150613ac982613a62565b604082019050919050565b60006020820190508181036000830152613aed81613ab1565b9050919050565b600081519050919050565b600082825260208201905092915050565b6000613b1b82613af4565b613b258185613aff565b9350613b35818560208601612abb565b613b3e81612aee565b840191505092915050565b6000608082019050613b5e6000830187612bef565b613b6b6020830186612bef565b613b786040830185612c85565b8181036060830152613b8a8184613b10565b905095945050505050565b600081519050613ba481612a10565b92915050565b600060208284031215613bc057613bbf6129da565b5b6000613bce84828501613b95565b91505092915050565b7f5061757361626c653a2070617573656400000000000000000000000000000000600082015250565b6000613c0d601083612aaa565b9150613c1882613bd7565b602082019050919050565b60006020820190508181036000830152613c3c81613c00565b9050919050565b7f455243373231456e756d657261626c653a20636f6e736563757469766520747260008201527f616e7366657273206e6f7420737570706f727465640000000000000000000000602082015250565b6000613c9f603583612aaa565b9150613caa82613c43565b604082019050919050565b60006020820190508181036000830152613cce81613c92565b9050919050565b7f4e487b7100000000000000000000000000000000000000000000000000000000600052601160045260246000fd5b6000613d0f82612b5a565b9150613d1a83612b5a565b925082821015613d2d57613d2c613cd5565b5b828203905092915050565b6000613d4382612b5a565b9150613d4e83612b5a565b9250827fffffffffffffffffffffffffffffffffffffffffffffffffffffffffffffffff03821115613d8357613d82613cd5565b5b828201905092915050565b7f4e487b7100000000000000000000000000000000000000000000000000000000600052603160045260246000fd5b7f4552433732313a206d696e7420746f20746865207a65726f2061646472657373600082015250565b6000613df3602083612aaa565b9150613dfe82613dbd565b602082019050919050565b60006020820190508181036000830152613e2281613de6565b9050919050565b7f4552433732313a20746f6b656e20616c7265616479206d696e74656400000000600082015250565b6000613e5f601c83612aaa565b9150613e6a82613e29565b602082019050919050565b60006020820190508181036000830152613e8e81613e52565b905091905056fe68747470733a2f2f6261666b726569646f7332716d673772366636796b6e35616f71637565326e7368666b6732763376637237723764357a68366463756a33653269342e697066732e6e667473746f726167652e6c696e6b2fa26469706673582212200c04a40cd1b37c0d39d3899601083ea10c89407bbbfd9078137120b9b207278f64736f6c63430008090033",
  "linkReferences": {},
  "deployedLinkReferences": {}
}